:100000000C9439000C9400000C9400000C94000037
:100010000C9400000C9400000C9400000C94000060
:100020000C9400000C9400000C9400000C94000050
:100030000C9400000C9400000C9400000C94000040
:100040000C9400000C9400000C9400000C94000030
:100050000C94000001020408102040800000010000
:100060002D4E414E00494E460000010060025E00E8
:100070000000F894EE27ECBBF1E0FBBFEBBFE5BF5F
:100080008DE0A2E0BB27ED938A95E9F780E098E048
:10009000A0E6ED930197E9F7EAE6F0E08591959106
:1000A000009761F0A591B59105901590BF01F00101
:1000B00005900D920197E1F7FB01F0CFEFE5EDBF61
:1000C000E8E0EEBFC0E6D2E00C9466002A978AE032
:1000D000A0E0B0E0E4E5F0E00E94B100E885F98539
:1000E0000E94AC00F0E0E887F98700E010E00830FB
:1000F000E0E01E072CF5E885F985309739F0980186
:10010000E7E0F0E0E01BF10BAF0106C0E7E0F0E054
:10011000E01BF10B9F01A801DE01A20FB31FEC91C0
:10012000EBBBDE01A40FB51FEC91E8BBA8ECB0E07F
:100130000E94A200E0E0E8BBEBBB0F5F1F4FD7CFF0
:10014000CDCFFFCF109639F0A89588EE93E00197B8
:10015000F1F71197C9F70895EF2BE1E009F0E0E01E
:100160000895AC0FBD1F05900D928A95E1F7089593
:00000001FF
