:0C0000000C9434000C9400000C940000E0
:10000C000C9400000C9400000C9400000C94000064
:10001C000C9400000C9400000C9400000C94000054
:10002C000C9400000C9400000C9400000C94000044
:10003C000C9400000C9400000C9400000C94000034
:10004C000C9400000C94000001002D4E414E004910
:10005C004E4600000100600254000000F894EE27A8
:10006C00ECBBF1E0FBBFEBBFE5BF8DE0A2E0BB2733
:10007C00ED938A95E9F780E098E0A0E6ED9301977F
:10008C00E9F7E0E6F0E085919591009761F0A59194
:10009C00B59105901590BF01F00105900D92019757
:1000AC00E1F7FB01F0CFEFE5EDBFE8E0EEBFC0E616
:1000BC00D2E00C9461002297E0E0E883E983EFEF53
:1000CC00E7BBEABBE881F9810E949704F0E0E88382
:1000DC00F98300E010E00830E0E01E0774F5E881D9
:1000EC00F981309751F00E945B02F8010E94620284
:1000FC00E7E0F0E0E01BF10B09C00E945B02E7E0D7
:10010C00F0E0E01BF10B0E946202F8010E949204E5
:10011C000E944D03DF01CB010E9409020E941603CD
:10012C00AF012BBB48BBA8ECB0E00E94BA02E0E0E8
:10013C00E8BBEBBB0F5F1F4FCECFC4CFFFCF0E94EE
:10014C00B5047B816A81F981E88177FB770F67FDC4
:10015C007160972F9E5781F078F0983190F4AA2710
:10016C00BB27882708948795B795A7959A95D1F7BB
:10017C00EA23FB23682305C0E8947727EE27FF27A3
:10018C0066276F77769508F4606877F9A991B9912D
:10019C0089919991EA17FB076807790797FB0895EE
:1001AC000E94B5040E94A6040E94A5000E94AB0404
:1001BC0019F40E946E0205C0E6F70E946E020E94BE
:1001CC007102249608950E94B50424971A930A93F9
:1001DC000E9478020E94CB042CF0EFEFFFEF6FE748
:1001EC007FEF73C00E947D020E94B004ADB7BEB712
:1001FC0011971F930F930E94C4020F911F910E949D
:10020C0082020E947802E3EFF4E065E37FE30E9450
:10021C006A0440F40E9487020E9487030E948202B3
:10022C00015010400E947D020E9471027F936F93D7
:10023C00FF93EF930E947D02A0E0B0E080E89FE383
:10024C000E948703AF91BF918F919F910E942504CB
:10025C000E9482020E9487020E948902A6E2B2E4F6
:10026C0085E69FE30E949002EEE4F1E164E570E420
:10027C000E9495020E9478020E94D7037F936F938D
:10028C00FF93EF930E949A02ADE4B1E184ED9FE3FA
:10029C000E948003AF91BF918F919F910E94250482
:1002AC007F936F93FF93EF93F8010E9492040E9447
:1002BC004D03A8E1B2E781E39FE30E94D703AF911E
:1002CC00BF918F919F910E948703198108812A9673
:1002DC0008950E94B50428971A930A930E949F02CE
:1002EC00E0E5FCEA6EEA72EC0E946A0418F40E94E3
:1002FC00A40285C0EA85FB856C857D850E94C704B8
:10030C0029F4E0E0F0E060E87FE379C00E949F020E
:10031C00E8E1F2E761EB72E40E946A0409F008F488
:10032C0005C0EFEFFFEF6FE77FE769C00E949F0208
:10033C00EBE3FAEA68EB7FE30E94D703EA87FB87DB
:10034C006C877D870E949F022BDF0E9416038F0112
:10035C000E949F020E9492040E944D030E949502EB
:10036C00DF01CB01E0E0F0E060E07FE30E9495026A
:10037C000E9482020E9487020E948902ADE6BCE4C0
:10038C008CE69DE30E94D703A6EAB3EE86EE90E4DA
:10039C000E9487030E9478020E94D7030E94820267
:1003AC000E949A02A8E2BDE886EA91E40E948703C3
:1003BC00EA83FB836C837D830E947D02AA81BB81CF
:1003CC008C819D810E948703A3EFB4E085EB9FE3B2
:1003DC000E94D7037F936F93FF93EF930E94780251
:1003EC000E949A020E948003AF91BF918F919F91BE
:1003FC000E9425040E94B004D8010E94D5021981E4
:10040C0008812E9608950E94B50424970E94A90293
:10041C000E94C70419F40E94A40245C0A885B9859E
:10042C008A859B850E94CB0494F40E94AE020E94A4
:10043C00C70429F4E0E0F0E060E87FE334C0A8856D
:10044C00B9858A859B850E94B30243DF2CC00E942C
:10045C00AE02DE010E9416030E949C040E946E02F2
:10046C000E944D03DF01CB010E94AE020E94D10419
:10047C0019F00E94A40217C00E94A9020E94E10276
:10048C00DF01CB010E94B30224DFE887F9876A877A
:10049C007B87E881E17019F40E94A90204C00E94D4
:1004AC00A9020E94E1022C960895E0E0F0E060E0E1
:1004BC0070E40E94B00408950E9492040E944D03BF
:1004CC00DF01CB010E9409020E9416039F01EDCFB0
:1004DC000E94A1040895A0E0B0E080E89FE30E9490
:1004EC0080030895AE81BF81888599850895EE813A
:1004FC00FF81688579850895EE83FF836887798706
:10050C000895F5DFEFCF0E94D703EA83FB836C835A
:10051C007D8308950E94D703DF01CB0108950E94CB
:10052C00BA040E9480030895EA81FB816C817D816D
:10053C000895AA85BB858C859D850895E0E0F0E043
:10054C0060E070E00895E885F9856A857B850895FB
:10055C00EC81FD816E817F8108950E94E900AC8160
:10056C00BD818E819F81D6CF109639F0A89588EEEB
:10057C0093E00197F1F71197C9F70895E991F99173
:10058C006991799177FB660F771F88277E57880BC7
:10059C007D938C937EE7769567956EF00895E9913F
:1005AC00F9916991799177FB660F771F7A0F7695A0
:1005BC0067950EF0089530976040704009F07058C0
:1005CC000895552342F4503811F4E0FF04C03196DD
:1005DC00691F791F6BF050E8572711F45F93CFC058
:1005EC005F3F31F0660F000C57956795752F089596
:1005FC005F9300200AF0CFC0C8C050E8192E152216
:10060C00880F991F9527550F879550E8072E0522BF
:10061C00660F771F7527550F67950895689401C06D
:10062C00E8945F93F2DF703818F07F3F08F4A7C0AE
:10063C0056E1571BAAF4519558300EF4593030F04E
:10064C00EFEFFFEF6FEF7FE777F91AC077275523AE
:10065C00B9F0EE0FFF1F661F771F5A95D1F710C028
:10066C007727583028F0EF2FF62F672F5850F9CFF7
:10067C00552331F076956795F795E7955A95D1F70F
:10068C0000200AF441D15F910895689401C0E89468
:10069C00309760407040B1F0002426F0772312F4BC
:1006AC00009432D1172E7EE1112032F07A95EE0FA4
:1006BC00FF1F661F111CF9CFEF2FF62F612D5F93D3
:1006CC008ADF5F9108954F93AF01FD01DA01AB0111
:1006DC00BC01CA01402D012C142E4F910895EA0F34
:1006EC00FB1F681F0895E095F0956095EF5FFF4F35
:1006FC006F4F08955F9381DF903871F150E81526A4
:10070C0004C05F937ADF903839F1703821F1572F9C
:10071C00591B2BF112F4D7DFFACF583118F0AA2756
:10072C00BB278827583028F0AB2FB82F8827585074
:10073C00F9CF552329F08695B795A7955A95D9F7F2
:10074C00502D512572F0CBDF38F46795F795E7956E
:10075C00739513F420C0B7DF3EDF5F910895D8F78F
:10076C00FBCFEA1BFB0B680B51F010F40094BBDFC2
:10077C00662392F3EE0FFF1F661F7A95CBF7EE27D9
:10078C00FF27662777275F910895EFEFFFEF6FE75D
:10079C007FEF5F910895EFEFFFEF6FE77FE75F91DA
:1007AC0008955F932ADF703851F3903841F3012498
:1007BC000894791F23F41CF300203AF3ECCF0F922A
:1007CC001F932F933F934F93112722279927689FAD
:1007DC00A0018F9F302D410D591F6B9F300D411D76
:1007EC00591F8E9F27D0BF9F25D06A9F23D0BE9FB5
:1007FC001DD0AF9F1BD0AE9F110D291F391F491F54
:10080C00591FE32FF42F652F522F4F913F912F91AA
:10081C001F910F9066232AF0550FEE1FFF1F661FC6
:10082C0002C073954BF2CDDE5F910895100D211D22
:10083C00391F02C0200D311D491F591F08955F93A8
:10084C00DCDE703821F411200AF49FCFA4CF90384D
:10085C0009F495CF01240894970B1BF4D4F30020D2
:10086C00F3CF792F1F932F933F934F93112411277D
:10087C00222733274427552790E2AE17BF07860758
:10088C00410730F0AE1BBF0B860B410B089401C027
:10089C008894551F221F331F111CAA1FBB1F881FB2
:1008AC00441F9A9551F7F901612D4F913F912F916A
:1008BC001F91662332F0550FEE1FFF1F661F7A95AE
:1008CC0043F27FDE5F91089599239AF0772342F0EB
:1008DC00971748F029F4AE17BF07860720F031F0C0
:1008EC0098948894089598940894089518948894EA
:1008FC0008957723C2F7971798F3A9F7EA17FB0720
:10090C00680788F399F3ECCFF09560957095E195B5
:10091C00FF4F6F4F7F4F08956F2F660F660B762F2B
:10092C000895EF2BE1E009F0E0E00895ED93FD93DD
:10093C006D937C930895E881F9816A817B81089598
:10094C00A881B9818A819B810895E883F9836A83A0
:10095C007B8308957A936A93FA93EA9308959A9312
:10096C008A93BA93AA930895182E862F612D192E67
:10097C00972F712D1B2EBF2FF12D1A2EAE2FE12D7F
:10098C000895309760407040089500240A160B06B5
:10099C00080609060895EA17FB0768077907089502
:00000001FF
